:100000000C9461000C9418030C94F1020C947E0083
:100010000C947E000C947E000C947E000C947E0068
:100020000C947E000C947E000C947E000C947E0058
:100030000C947E000C947E000C947E000C947E0048
:100040000C94A7020C947E000C947E000C947E000D
:100050000C947E000C947E000C947E000C947E0028
:100060000C947E000C947E00000000002400270009
:100070002A0000000000250028002B0000000000DE
:1000800023002600290004040404040404040202DA
:100090000202020203030303030301020408102007
:1000A0004080010204081020010204081020000012
:1000B0000008000201000003040700000000000027
:1000C000000011241FBECFEFD8E0DEBFCDBF11E08E
:1000D000A0E0B1E0E0EDFDE002C005900D92A63099
:1000E000B107D9F721E0A6E0B1E001C01D92AA3224
:1000F000B207E1F70E943F030C94E6060C9400005F
:10010000833081F028F4813099F08230A9F008958D
:100110008730A9F08830C9F08430B1F48091800034
:100120008F7D03C0809180008F7780938000089539
:1001300084B58F7784BD089584B58F7DFBCF809182
:10014000B0008F778093B00008958091B0008F7DCC
:10015000F9CFCF93DF93282F30E0F901E255FF4F1D
:100160008491F901E656FF4FD491F901EA57FF4F08
:10017000C491CC23A1F081110E948000EC2FF0E00B
:10018000EE0FFF1FE458FF4FA591B491EC91ED23C2
:1001900081E090E009F480E0DF91CF91089580E064
:1001A00090E0FACF1F93CF93DF93282F30E0F9012F
:1001B000E255FF4F8491F901E656FF4FD491F901C2
:1001C000EA57FF4FC491CC23A9F0162F81110E944A
:1001D0008000EC2FF0E0EE0FFF1FEE58FF4FA591CF
:1001E000B4918FB7F894EC91111108C0D095DE232B
:1001F000DC938FBFDF91CF911F910895DE2BF8CF55
:10020000CF93DF9390E0FC01E656FF4F24918A578D
:100210009F4FFC0184918823D1F090E0880F991FB3
:10022000FC01E859FF4FA591B491FC01EE58FF4F36
:10023000C591D49161110EC09FB7F8948C91E22FB3
:10024000E0958E238C932881E223E8839FBFDF9182
:10025000CF9108958FB7F894EC91E22BEC938FBF78
:10026000F6CF3FB7F8948091070190910801A091D3
:100270000901B0910A0126B5A89B05C02F3F19F0CE
:100280000196A11DB11D3FBFBA2FA92F982F882716
:10029000BC01CD01620F711D811D911D42E0660FF1
:1002A000771F881F991F4A95D1F708954F925F9243
:1002B0006F927F92AF92BF92CF92DF92EF92FF92B6
:1002C0000F931F93CF93DF9300D000D000D0CDB712
:1002D000DEB7A82EC62EB42ED22EC80164E070E080
:1002E0000E94BE069E838D830E94310169837A83BA
:1002F0008B839C832701FF0C660877080E943101DD
:1003000029813A814B815C81621B730B840B950BB5
:10031000641575058605970588F34D815E8141302A
:100320005105B9F1BCF4452B31F126960FB6F8947E
:10033000DEBF0FBECDBFDF91CF911F910F91FF9018
:10034000EF90DF90CF90BF90AF907F906F905F90D5
:100350004F9008958D819E8182309105F1F1039730
:1003600021F760E08A2D0E94D20061E08B2D0E946F
:10037000D20061E009C061E08A2D0E94D20061E0F4
:100380008B2D0E94D20060E08C2D0E94D20060E094
:100390000DC061E08A2D0E94D20060E08B2D0E948A
:1003A000D20060E08C2D0E94D20061E08D2D269657
:1003B0000FB6F894DEBF0FBECDBFDF91CF911F9176
:1003C0000F91FF90EF90DF90CF90BF90AF907F9014
:1003D0006F905F904F900C94D20060E08A2D0E9445
:1003E000D20060E08B2D0E94D20061E0DBCF089547
:1003F000CF92DF92EF92FF92CF93DF93EC010E94B6
:1004000031016B017C010E9431016C197D098E095B
:100410009F09643171058105910528F460E083E14D
:100420000E94D200F0CF0E9431016B017C010E943A
:1004300031016C197D098E099F09683271058105AA
:10044000910528F461E083E10E94D200F0CF60E0E2
:1004500083E10E94D200C130D105C1F0C330D10583
:1004600009F446C0209701F5219780E00E94A90079
:10047000892BD1F30E9431016B017C012197A1F0FE
:1004800080E00E94A900892BC9F717C0D0E0C0E026
:10049000219781E00E94A900892BD1F30E943101AC
:1004A0006B017C01219721F460E070E0CB010DC06D
:1004B00081E00E94A900892BA9F70E9431016C19E3
:1004C0007D098E099F090E949F0520E030E040E0F1
:1004D0005FE30E94000624E037EE4CE05DE30E94FB
:1004E0000006DF91CF91FF90EF90DF90CF900895BD
:1004F000D0E0C0E0219783E00E94A900892BD1F3CE
:100500000E9431016B017C01219771F283E00E940E
:10051000A900892BC9F7D1CF80910D01811114C099
:1005200080911701811104C081E080931701089523
:1005300080912401811104C081E0809324010895F9
:1005400081E080930D01089510920D0108951F928E
:100550000F920FB60F9211242F933F938F939F9377
:10056000AF93BF9380910E0190910F01A091100164
:10057000B09111013091060123E0230F2D3758F57A
:100580000196A11DB11D2093060180930E01909349
:100590000F01A0931001B093110180910701909178
:1005A0000801A0910901B0910A010196A11DB11D98
:1005B0008093070190930801A0930901B0930A0169
:1005C000BF91AF919F918F913F912F910F900FBE4F
:1005D0000F901F90189526E8230F0296A11DB11DBC
:1005E000D2CF1F920F920FB60F9211242F933F93E9
:1005F0004F935F936F937F938F939F93AF93BF932B
:10060000EF93FF93E0910201F09103010995FF91AF
:10061000EF91BF91AF919F918F917F916F915F917A
:100620004F913F912F910F900FBE0F901F901895F3
:100630001F920F920FB60F9211242F933F934F9357
:100640005F936F937F938F939F93AF93BF93EF933A
:10065000FF93E0910001F09101010995FF91EF9165
:10066000BF91AF919F918F917F916F915F914F91CA
:100670003F912F910F900FBE0F901F901895789477
:1006800084B5826084BD84B5816084BD85B5826097
:1006900085BD85B5816085BD80916E008160809348
:1006A0006E001092810080918100826080938100B1
:1006B00080918100816080938100809180008160C1
:1006C000809380008091B10084608093B10080911C
:1006D000B00081608093B00080917A008460809344
:1006E0007A0080917A00826080937A0080917A000B
:1006F000816080937A0080917A00806880937A008C
:100700001092C10061E08CE00E94000160E082E193
:100710000E94000160E081E00E94000160E083E04F
:100720000E94000160E080E00E94000161E083E13E
:100730000E94000161E08BE00E94000161E089E01D
:100740000E94000161E08AE00E94000161E088E00F
:100750000E94000161E081E10E94000161E08FE000
:100760000E94000161E080E10E94000161E08EE0F2
:100770000E94000161E087E00E94000161E085E0E5
:100780000E94000161E086E00E94000161E084E0D7
:100790000E9400018CE892E0909301018093000197
:1007A000809169008C7F816080936900E89A66245B
:1007B00063947724739450E8252E312C63E0C62E81
:1007C000D12C72E0472E512C82E10E94A900892B86
:1007D00009F4ABC18FB7F89480900E0190900F018F
:1007E000A0901001B09011018FBF809226019092CD
:1007F0002701A0922801B092290180912501811141
:100800002CC080912401811128C081E090E00E94D9
:10081000F80120E030E040E251E40E949A0587FFB1
:100820001CC090E080E00E94F80120E030E040E24F
:1008300051E40E949A0587FF9BC083E090E00E94EC
:10084000F80120E030E040E251E40E949A0587FF81
:100850008AC0D0922301C09222018091210181118E
:100860000DC080912201909123018130910509F4FE
:10087000F4C00CF084C0892B09F4C2C08091190126
:1008800090911A01A0911B01B0911C01A501940146
:10089000281B390B4A0B5B0BDA01C901883E9340D8
:1008A000A105B10580F060911801662560931801DB
:1008B0008CE00E94D2008092190190921A01A092BD
:1008C0001B01B0921C0180911701882371F0809167
:1008D000160181110AC08092120190921301A09218
:1008E0001401B092150170921601809124018823A1
:1008F00091F18091120190911301A0911401B09196
:100900001501881A990AAA0ABB0A44EF841641E025
:100910009406A104B10408F401C1709221018091F0
:100920000D018111F2C000910B0110910C010F5FBC
:100930001F4F10930C0100930B0180E3E82E85E715
:10094000F82E24E030E046E050E065E070E087E01B
:1009500090E00E94560180E090E0892B09F434CFAA
:100960000E94000031CF509223014092220175CFA6
:1009700081E090E090932301809322016ECF82303A
:10098000910509F492C08330910509F077CFC091A9
:100990000401D0910501209709F47CC020911F012A
:1009A00030912001121613060CF0A5C02150310918
:1009B0003093200120931F0180911D0190911E0111
:1009C000181619060CF09CC0019790931E01809395
:1009D0001D0100911F011091200190E1E92E97E285
:1009E000F92E2EE030E040E150E06FE070E081E170
:1009F00090E00E94560100911D0110911E0141C01E
:100A000000911F01109120010F5F1F4F10932001D3
:100A100000931F01C0911D01D0911E012196D0931A
:100A20001E01C0931D0140E1E42E47E2F42E2EE0AA
:100A300030E040E150E06FE070E081E190E00E9442
:100A400056018E0128E030E04AE050E069E070E0B5
:100A50008BE090E00E94560111CFC0910401D0912B
:100A600005012097B9F000911D0110911E010F5F43
:100A70001F4F10931E0100931D0130E3E32E35E755
:100A8000F32E28E030E04AE050E069E070E08BE0CF
:100A900090E027C0109223011092220130920501AC
:100AA0002092040110922501E9CEC0910401D09159
:100AB0000501209779F300911F01109120010F5F2C
:100AC0001F4F1093200100931F0120E3E22E25E722
:100AD000F22E2EE030E040E150E06FE070E081E186
:100AE00090E00E9456012197D0930501C093040124
:100AF00070922501C3CE9093200180931F015CCF9B
:100B0000D0921E01C0921D0164CF10921701109265
:100B1000240110921601109221011DCF109217018D
:100B2000109216011092240116CF60E08CE00E9412
:100B3000D20011CF0E94DC0508F481E00895E8940A
:100B400009C097FB3EF490958095709561957F4F15
:100B50008F4F9F4F9923A9F0F92F96E9BB279395C3
:100B6000F695879577956795B795F111F8CFFAF4D3
:100B7000BB0F11F460FF1BC06F5F7F4F8F4F9F4F04
:100B800016C0882311F096E911C0772321F09EE862
:100B9000872F762F05C0662371F096E8862F70E0C8
:100BA00060E02AF09A95660F771F881FDAF7880FA2
:100BB0009695879597F90895990F0008550FAA0BF8
:100BC000E0E8FEEF16161706E807F907C0F0121660
:100BD0001306E407F50798F0621B730B840B950B63
:100BE00039F40A2661F0232B242B252B21F40895B8
:100BF0000A2609F4A140A6958FEF811D811D089555
:100C00000E9413060C9484060E94760638F00E9417
:100C10007D0620F0952311F00C946D060C9473065C
:100C200011240C94B8060E94950670F3959FC1F3A9
:100C3000950F50E0551F629FF001729FBB27F00D8A
:100C4000B11D639FAA27F00DB11DAA1F649F6627DF
:100C5000B00DA11D661F829F2227B00DA11D621F2E
:100C6000739FB00DA11D621F839FA00D611D221FE8
:100C7000749F3327A00D611D231F849F600D211DCC
:100C8000822F762F6A2F11249F5750409AF0F1F04F
:100C900088234AF0EE0FFF1FBB1F661F771F881FB8
:100CA00091505040A9F79E3F510580F00C946D067D
:100CB0000C94B8065F3FE4F3983ED4F3869577959D
:100CC0006795B795F795E7959F5FC1F7FE2B880F5E
:100CD000911D9695879597F9089597F99F6780E8F4
:100CE00070E060E008959FEF80EC089500240A947E
:100CF0001616170618060906089500240A941216F7
:100D00001306140605060895092E0394000C11F429
:100D1000882352F0BB0F40F4BF2B11F460FF04C0D6
:100D20006F5F7F4F8F4F9F4F089557FD9058440F2F
:100D3000551F59F05F3F71F04795880F97FB991F3A
:100D400061F09F3F79F087950895121613061406F7
:100D5000551FF2CF4695F1DF08C016161706180684
:100D6000991FF1CF86957105610508940895E8945F
:100D7000BB2766277727CB0197F9089597FB072EA6
:100D800016F4009407D077FD09D00E94D20607FC24
:100D900005D03EF4909581959F4F0895709561958B
:100DA0007F4F0895AA1BBB1B51E107C0AA1FBB1FA1
:100DB000A617B70710F0A61BB70B881F991F5A95E7
:100DC000A9F780959095BC01CD010895F894FFCFC7
:060DD000F701F7018000AD
:00000001FF
