:100000000C9462000C948D060C9466060C948A0085
:100010000C948A000C948A000C948A000C948A0038
:100020000C948A000C948A000C948A000C948A0028
:100030000C948A000C948A000C948A000C948A0018
:100040000C941C060C948A000C94EA050C94C405CC
:100050000C948A000C948A000C948A000C948A00F8
:100060000C948A000C948A000000000024002700F1
:100070002A0000000000250028002B0000000000DE
:1000800023002600290004040404040404040202DA
:100090000202020203030303030301020408102007
:1000A0004080010204081020010204081020000012
:1000B0000008000201000003040700000000000027
:1000C0000000B40611241FBECFEFD8E0DEBFCDBFC5
:1000D00011E0A0E0B1E0E6EEF6E102C005900D927D
:1000E000A832B107D9F722E0A8E2B1E001C01D9221
:1000F000A133B207E1F710E0C2E6D0E004C02197D7
:10010000FE010E94570BC136D107C9F70E940907AB
:100110000C94710B0C940000AF92BF92CF92DF92BF
:10012000EF92FF920F931F93CF93DF936C017B01AC
:100130008B01040F151FEB015E01AE18BF08C0173D
:10014000D10759F06991D601ED91FC910190F081B0
:10015000E02DC6010995892B79F7C501DF91CF9173
:100160001F910F91FF90EF90DF90CF90BF90AF90D5
:100170000895FC01538D448D252F30E0842F90E0AD
:10018000821B930B541710F0CF9608950197089592
:10019000FC01918D828D981761F0A28DAE0FBF2F5B
:1001A000B11D5D968C91928D9F5F9F73928F90E0B1
:1001B00008958FEF9FEF0895FC01918D828D981720
:1001C00031F0828DE80FF11D858D90E008958FEF5D
:1001D0009FEF0895FC01918D228D892F90E0805C26
:1001E0009F4F821B91098F739927089586E491E0B0
:1001F0000E94EA0021E0892B09F420E0822F089573
:1002000080E090E0892B29F00E94F60081110C9487
:1002100000000895FC01A48DA80FB92FB11DA35AA9
:10022000BF4F2C91848D90E001968F739927848F16
:10023000A689B7892C93A089B1898C918370806439
:100240008C93938D848D981306C00288F389E02DDA
:1002500080818F7D80830895EF92FF920F931F938B
:10026000CF93DF93EC0181E0888F9B8D8C8D981369
:100270001AC0E889F989808185FF15C09FB7F89475
:10028000EE89FF896083E889F989808183708064C1
:1002900080839FBF81E090E0DF91CF911F910F910C
:1002A000FF90EF900895F62E0B8D10E00F5F1F4F1B
:1002B0000F731127E02E8C8D8E110CC00FB607FC2A
:1002C000FACFE889F989808185FFF5CFCE010E94B8
:1002D0000A01F1CFEB8DEC0FFD2FF11DE35AFF4F1B
:1002E000F0829FB7F8940B8FEA89FB898081806246
:1002F000CFCFCF93DF93EC01888D8823B9F0AA8903
:10030000BB89E889F9898C9185FD03C0808186FDD0
:100310000DC00FB607FCF7CF8C9185FFF2CF80811F
:1003200085FFEDCFCE010E940A01E9CFDF91CF9189
:100330000895833081F028F4813099F08230A9F05B
:1003400008958730A9F08830C9F08430B1F48091E5
:1003500080008F7D03C0809180008F778093800024
:10036000089584B58F7784BD089584B58F7DFBCFC4
:100370008091B0008F778093B00008958091B00095
:100380008F7DF9CFCF93DF93282F30E0F901E2552D
:10039000FF4F8491F901E656FF4FD491F901EA57D6
:1003A000FF4FC491CC23A1F081110E949901EC2F41
:1003B000F0E0EE0FFF1FE458FF4FA591B491EC91D0
:1003C000ED2381E090E009F480E0DF91CF91089582
:1003D00080E090E0FACF1F93CF93DF93282F30E097
:1003E000F901E255FF4F8491F901E656FF4FD49190
:1003F000F901EA57FF4FC491CC23A9F0162F8111C0
:100400000E949901EC2FF0E0EE0FFF1FEE58FF4F16
:10041000A591B4918FB7F894EC91111108C0D095C3
:10042000DE23DC938FBFDF91CF911F910895DE2BE8
:10043000F8CFCF93DF9390E0FC01E656FF4F249175
:100440008A579F4FFC0184918823D1F090E0880F58
:10045000991FFC01E859FF4FA591B491FC01EE589A
:10046000FF4FC591D49161110EC09FB7F8948C9144
:10047000E22FE0958E238C932881E223E8839FBFAF
:10048000DF91CF9108958FB7F894EC91E22BEC9324
:100490008FBFF6CF0F931F93CF93DF93EC01862F7F
:1004A0001B861A86198218821E8A1F8A188E198E38
:1004B000E0E4F0E0FF83EE836C877D875F874E8703
:1004C000398B288B1B8B0A8B61E00E94190261E03B
:1004D0008E850E94190261E088890E94190261E0FC
:1004E0008A890E9419021D8A1C8A84E090E09987FB
:1004F0008887DF91CF911F910F9108953FB7F894AE
:100500008091290190912A01A0912B01B0912C0199
:1005100026B5A89B05C02F3F19F00196A11DB11D5E
:100520003FBFBA2FA92F982F8827BC01CD01620F9A
:10053000711D811D911D42E0660F771F881F991F55
:100540004A95D1F7089508950F931F93CF93DF93A2
:10055000EC018B0188859985029749F4613071051A
:1005600009F436C04CF560E00115110591F188855C
:100570009985049749F40130110509F451C09CF59F
:100580000115110509F43BC088859985059709F087
:10059000C5C00A30110508F0C1C0F801EE52FD4F88
:1005A0000C94570B24032E033C034E03660368038D
:1005B0006E03780386038C036230710591F060E06E
:1005C00003301105A1F68C850E94EB0160E005C0A7
:1005D00061E08C850E94EB0161E08E850E94EB0159
:1005E000C6CF61E0F0CF0230110501F103301105F3
:1005F00059F661E08C850E94EB0160E01CC061E06F
:100600008C850E94EB0160E08E850E94EB0161E029
:1006100088890E94EB0160E08A890E94EB01B4CFD7
:1006200060E08C850E94EB0161E0EECF60E08C859C
:100630000E94EB0161E08E850E94EB0160E08889F9
:100640000E94EB0161E0E8CF60E08C850E94EB0145
:1006500061E08E850E94EB0161E009C060E08C855D
:100660000E94EB0161E08E850E94EB0160E08889C9
:100670000E94EB0160E00DC060E08C850E94EB0100
:1006800061E08E850E94EB0160E088890E94EB01A9
:1006900061E08A890E94EB0161E011C060E08C8515
:1006A0000E94EB0161E08E850E94EB0160E0888989
:1006B0000E94EB0161E08A890E94EB0160E08C8975
:1006C000DF91CF911F910F910C94EB0161E0E7CF87
:1006D00061E08C850E94EB0160E0E5CF61E08C85F4
:1006E0000E94EB0160E08E850E94EB0161E0DFCFAC
:1006F00061E08C850E94EB0160E08E850E94EB0139
:1007000061E088890E94EB0160E0D5CF61E08C85D3
:100710000E94EB0160E09DCF60E0F9CFDF91CF91C7
:100720001F910F9108954F925F926F927F928F92D7
:100730009F92AF92BF92CF92DF92EF92FF920F9370
:100740001F93CF93DF93EC018B0177FF04C0002749
:100750001127061B170B161617060CF04AC081E06E
:1007600090E09983888384E0E82EF12C9AE0C92EEA
:10077000D12C0115110509F44EC00E947E028E880D
:100780009F88A88CB98C2B013C01481859086A082D
:100790007B088A809B80AC80BD80481459046A0421
:1007A0007B0438F36E8B7F8B888F998F8A859B852E
:1007B000288139812130310511F501969B878A877F
:1007C0002E813F818217930711F41B861A860150F0
:1007D00011098A859B8528853985B6012530310523
:1007E00009F0B7010E94020BBC01CE010E94A402D5
:1007F000C0CF672B09F4B7CF19821882B4CF892BE9
:1008000021F48E819F819B878A878A859B850197AA
:100810009B878A87DCCFDF91CF911F910F91FF904B
:10082000EF90DF90CF90BF90AF909F908F907F9090
:100830006F905F904F90089580912D01811114C0A9
:1008400080913701811104C081E0809337010895C0
:1008500080914001811104C081E08093400108959E
:1008600081E080932D01089510922D010895FC01DF
:1008700001900020E9F73197AF01481B590BBC01EB
:1008800086E491E00C948C008F929F92AF92BF927D
:100890000F931F93CF93DF93CDB7DEB7A1970FB61A
:1008A000F894DEBF0FBECDBF19A2423008F44AE073
:1008B0008E010F5D1F4F842E912CB12CA12CA50110
:1008C00094010E94160BE62FB901CA01EA30F4F434
:1008D000E05DD801EE938D01232B242B252B79F796
:1008E00090E080E0109719F0CD010E943704A196A6
:1008F0000FB6F894DEBF0FBECDBFDF91CF911F9131
:100900000F91BF90AF909F908F900895E95CE1CFD9
:100910004F925F926F927F928F929F92AF92BF920F
:10092000CF92DF92EF92FF927C0160E083E10E9420
:10093000EB0183E090E00197F1F761E083E10E9431
:10094000EB0183E290E00197F1F760E083E10E9420
:10095000EB0181E0E816F104F1F083E0E816F10420
:1009600009F467C0E114F10441F581E0E81AF108E7
:1009700080E00E94C201892BC1F30E947E024B01DC
:100980005C0181E0E81AF108C1F080E00E94C20138
:10099000892BB9F71BC0F12CE12C81E0E81AF10892
:1009A00081E00E94C201892BC1F30E947E024B01AB
:1009B0005C0181E0E81AF10821F460E070E0CB010D
:1009C0000DC081E00E94C201892B99F70E947E022E
:1009D000681979098A099B090E94D90920E030E049
:1009E00040E05FE30E94900A24E037EE4CE05DE3D4
:1009F0000E94900A6B017C01AC019B010E94FD0AE0
:100A0000882381F188E191E00E94370484E291E03B
:100A10000E943704C701B601FF90EF90DF90CF909E
:100A2000BF90AF909F908F907F906F905F904F900E
:100A30000895F12CE12C81E0E81AF10883E00E948E
:100A4000C201892BC1F30E947E024B015C0181E04F
:100A5000E81AF10809F4B1CF83E00E94C201892BA2
:100A6000B1F7B4CF46015701E894B7F82FEF3FEF45
:100A70004FE75FE7C501B4010E94FD0A81110DC077
:100A80002FEF3FEF4FE75FE7C501B4010E94A509D3
:100A900018161CF48CE191E0B7CF2FEF3FEF4FE732
:100AA0005FE4C701B6010E948B0A18161CF480E2AD
:100AB00091E0AACF2FEF3FEF4FE75FECC701B60100
:100AC0000E94A50987FDF3CF20E030E0A901C7010E
:100AD000B6010E94A50987FF54C06DE286E491E04B
:100AE0000E942C01C701B60190582AE037ED43EA75
:100AF0005BE30E9439092B013C010E94AA094B01CA
:100B00005C010E94D9099B01AC01C301B2010E94A2
:100B100038092B013C014AE0C501B4010E9444049C
:100B20006EE286E491E00E942C0120E030E040E299
:100B300051E4C301B2010E94900A2B013C010E94C2
:100B4000AA094B01B12CA12C4AE0C501B4010E94B5
:100B50004404C501B4010E94D9099B01AC01C30141
:100B6000B2010E94380920E030E040E251E40E94E6
:100B7000900A0E94AA0990E080E04AE00E944404A2
:100B800045CFC701B601B1CF1F920F920FB60F929A
:100B900011242F933F934F935F936F937F938F9382
:100BA0009F93AF93BF93EF93FF9386E491E00E94EE
:100BB0000A01FF91EF91BF91AF919F918F917F912A
:100BC0006F915F914F913F912F910F900FBE0F90BA
:100BD0001F9018951F920F920FB60F9211242F930A
:100BE0008F939F93EF93FF93E0915601F0915701FC
:100BF0008081E0915C01F0915D0182FD1BC09081DC
:100C000080915F018F5F8F7320916001821741F0A7
:100C1000E0915F01F0E0EA5BFE4F958F80935F010A
:100C2000FF91EF919F918F912F910F900FBE0F9099
:100C30001F9018958081F4CF1F920F920FB60F92DC
:100C400011242F933F938F939F93AF93BF938091E2
:100C50002E0190912F01A0913001B091310130917E
:100C6000280123E0230F2D3758F50196A11DB11D52
:100C70002093280180932E0190932F01A09330019F
:100C8000B09331018091290190912A01A0912B010B
:100C9000B0912C010196A11DB11D80932901909363
:100CA0002A01A0932B01B0932C01BF91AF919F918A
:100CB0008F913F912F910F900FBE0F901F9018951D
:100CC00026E8230F0296A11DB11DD2CF1F920F92CD
:100CD0000FB60F9211242F933F934F935F936F930F
:100CE0007F938F939F93AF93BF93EF93FF93E09185
:100CF0000201F09103010995FF91EF91BF91AF912E
:100D00009F918F917F916F915F914F913F912F9123
:100D10000F900FBE0F901F9018951F920F920FB655
:100D20000F9211242F933F934F935F936F937F9371
:100D30008F939F93AF93BF93EF93FF93E091000145
:100D4000F09101010995FF91EF91BF91AF919F91B2
:100D50008F917F916F915F914F913F912F910F9064
:100D60000FBE0F901F9018950F931F93E6E4F1E0CC
:100D70001382128288EE93E0A0E0B0E08483958332
:100D8000A683B7838AE091E09183808385EC90E02D
:100D90009587848784EC90E09787868780EC90E045
:100DA000918B808B81EC90E0938B828B82EC90E036
:100DB000958B848B86EC90E0978B868B118E128EB0
:100DC000138E148E0BE010E029E030E04AE050E092
:100DD00068E070E087E192E00E944A0201E110E0E1
:100DE0002FE030E040E150E06EE070E08DEF91E008
:100DF0000E944A0207E010E025E030E046E050E0C3
:100E000064E070E083EE91E00E944A021F910F912E
:100E10000895789484B5826084BD84B5816084BD72
:100E200085B5826085BD85B5816085BD80916E0088
:100E3000816080936E0010928100809181008260B9
:100E400080938100809181008160809381008091F6
:100E500080008160809380008091B10084608093E5
:100E6000B1008091B00081608093B00080917A00E1
:100E7000846080937A0080917A00826080937A0007
:100E800080917A00816080937A0080917A008068F6
:100E900080937A001092C100E0915601F0915701C1
:100EA00082E08083E0915201F09153011082E09141
:100EB0005401F09155018FEC808310925E01E09116
:100EC0005A01F0915B0186E08083E0915801F09136
:100ED0005901808180618083E0915801F09159012E
:100EE000808188608083E0915801F0915901808170
:100EF00080688083E0915801F091590180818F7D55
:100F0000808361E08CE00E94190260E082E10E942F
:100F1000190260E081E00E94190260E083E00E9413
:100F2000190260E080E00E94190261E083E10E9402
:100F300019028CE194E0909301018093000180916B
:100F400069008C7F816080936900E89A66246394CD
:100F5000C12C87E8D82E83E9E82E83E0F82E9EE1A5
:100F6000892E912CA12CB12C7724739400E810E0E9
:100F700082E10E94C201892B09F475C12FB7F89450
:100F800080912E0190912F01A0913001B0913101FB
:100F90002FBF8093420190934301A0934401B093EB
:100FA00045018091410181112EC080914001811144
:100FB0002AC081E090E00E94880420E030E040E216
:100FC00051E40E94A50987FF1EC090E080E00E94C6
:100FD000880420E030E040E251E40E94A50987FF48
:100FE000E4C083E090E00E94880420E030E040E22A
:100FF00051E40E94A50987FFD5C083E090E090935B
:101000003F0180933E0180913D01811141C02091BB
:101010001D0230911E02032E000C440B550BC7011C
:10102000B6010E94380BCA01B901A50194010E94C2
:10103000380B2093190230931A0240931B025093ED
:101040001C022091030230910402032E000C440B79
:10105000550BC701B6010E94380BCA01B901A501A1
:1010600094010E94380B2093FF01309300024093BB
:1010700001025093020280913E0190913F01813024
:10108000910509F4B9C00CF093C0892B09F4A7C0ED
:10109000209042013090430140904401509045011E
:1010A0008091390190913A01A0913B01B0913C01AE
:1010B000A2019101281B390B4A0B5B0BDA01C90114
:1010C000883E9340A105B10580F060913801662506
:1010D000609338018CE00E94EB012092390130923C
:1010E0003A0140923B0150923C01809137018823A4
:1010F00071F08091360181110AC020923201309244
:101100003301409234015092350170923601809142
:1011100040018823D1F18091320190913301A09157
:101120003401B0913501281A390A4A0A5B0A44EFA2
:10113000241641E034064104510408F48DC0709235
:101140003D0180912D0181117EC02091E9013091F6
:10115000EA01032E000C440B550BC701B6010E9497
:10116000380BCA01B901A50194010E94380B2093E4
:10117000E5013093E6014093E7015093E80162E016
:1011800070E083EE91E00E94930380E090E0892B71
:1011900009F4EECE0E94F600882309F4E9CE0E94FD
:1011A0000000E6CE82E090E02ACF81E090E027CFF9
:1011B00082309105A1F1039709F06ACFC091040133
:1011C000D0910501209701F16EEF7FEF8DEF91E057
:1011D0000E9493036EEF7FEF87E192E02AC062E006
:1011E00070E08DEF91E00E94930362E070E087E190
:1011F00092E00E9493034CCFC0910401D09105016D
:1012000062E070E0209741F710923F0110923E019A
:1012100010930501009304011092410139CFC09150
:101220000401D091050162E070E08DEF91E020971C
:1012300059F30E9493032297D0930501C0930401B0
:101240007092410125CF1092370110924001109207
:10125000360110923D0199CF10923701109236015C
:101260001092400192CF60E08CE00E94EB018DCFA4
:101270005058BB27AA270E9450090C94510A0E947B
:10128000430A38F00E944A0A20F039F49F3F19F4CB
:1012900026F40C94400A0EF4E095E7FB0C943A0A0D
:1012A000E92F0E94620A58F3BA176207730784078E
:1012B000950720F079F4A6F50C94840A0EF4E095D5
:1012C0000B2EBA2FA02D0B01B90190010C01CA0100
:1012D000A0011124FF27591B99F0593F50F4503EAB
:1012E00068F11A16F040A22F232F342F4427585F9D
:1012F000F3CF469537952795A795F0405395C9F7B5
:101300007EF41F16BA0B620B730B840BBAF091506C
:10131000A1F0FF0FBB1F661F771F881FC2F70EC00B
:10132000BA0F621F731F841F48F4879577956795DE
:10133000B795F7959E3F08F0B0CF9395880F08F0CA
:101340009927EE0F9795879508950E94160A08F43D
:1013500081E008950E946A0A88F09F5798F0B92F9B
:101360009927B751B0F0E1F0660F771F881F991FDA
:101370001AF0BA95C9F714C0B13091F00E94840AEE
:10138000B1E008950C94840A672F782F8827B85FFE
:1013900039F0B93FCCF3869577956795B395D9F732
:1013A0003EF490958095709561957F4F8F4F9F4F3C
:1013B0000895E89409C097FB3EF490958095709548
:1013C00061957F4F8F4F9F4F9923A9F0F92F96E991
:1013D000BB279395F695879577956795B795F11106
:1013E000F8CFFAF4BB0F11F460FF1BC06F5F7F4FA3
:1013F0008F4F9F4F16C0882311F096E911C07723B5
:1014000021F09EE8872F762F05C0662371F096E8BD
:10141000862F70E060E02AF09A95660F771F881F8C
:10142000DAF7880F9695879597F90895990F000830
:10143000550FAA0BE0E8FEEF16161706E807F907A6
:10144000C0F012161306E407F50798F0621B730B41
:10145000840B950B39F40A2661F0232B242B252BC2
:1014600021F408950A2609F4A140A6958FEF811D65
:10147000811D089597F99F6780E870E060E0089506
:101480009FEF80EC089500240A941616170618069C
:101490000906089500240A94121613061406050678
:1014A0000895092E0394000C11F4882352F0BB0F09
:1014B00040F4BF2B11F460FF04C06F5F7F4F8F4F6C
:1014C0009F4F089557FD9058440F551F59F05F3FA7
:1014D00071F04795880F97FB991F61F09F3F79F056
:1014E00087950895121613061406551FF2CF4695D8
:1014F000F1DF08C0161617061806991FF1CF86955A
:101500007105610508940895E894BB27662777273D
:10151000CB0197F908950E94160A08F48FEF0895F9
:101520000E94A30A0C94510A0E94430A38F00E94B8
:101530004A0A20F0952311F00C943A0A0C94400AC0
:1015400011240C94850A0E94620A70F3959FC1F3DE
:10155000950F50E0551F629FF001729FBB27F00D61
:10156000B11D639FAA27F00DB11DAA1F649F6627B6
:10157000B00DA11D661F829F2227B00DA11D621F05
:10158000739FB00DA11D621F839FA00D611D221FBF
:10159000749F3327A00D611D231F849F600D211DA3
:1015A000822F762F6A2F11249F5750409AF0F1F026
:1015B00088234AF0EE0FFF1FBB1F661F771F881F8F
:1015C00091505040A9F79E3F510580F00C943A0A83
:1015D0000C94850A5F3FE4F3983ED4F386957795A3
:1015E0006795B795F795E7959F5FC1F7FE2B880F35
:1015F000911D9695879597F908950E94160A880B74
:10160000990B089597FB072E16F4009407D077FDE9
:1016100009D00E945D0B07FC05D03EF490958195A2
:101620009F4F0895709561957F4F0895A1E21A2EFE
:10163000AA1BBB1BFD010DC0AA1FBB1FEE1FFF1F76
:10164000A217B307E407F50720F0A21BB30BE40BC6
:10165000F50B661F771F881F991F1A9469F760950D
:101660007095809590959B01AC01BD01CF010895C7
:10167000052E97FB1EF400940E944F0B57FD07D0D8
:101680000E94160B07FC03D04EF40C944F0B5095A0
:101690004095309521953F4F4F4F5F4F089590955E
:1016A0008095709561957F4F8F4F9F4F0895EE0FF6
:1016B000FF1F0590F491E02D0994AA1BBB1B51E17B
:1016C00007C0AA1FBB1FA617B70710F0A61BB70BB2
:1016D000881F991F5A95A9F780959095BC01CD0157
:0616E0000895F894FFCF0D
:1016E600A302A3028000000000002C018C00B900B8
:1016F6007901EA00C800DC006E616E00696E660062
:081706006F7666000D0A000079
:107E0000112484B714BE81FFF0D085E080938100F7
:107E100082E08093C00088E18093C10086E0809377
:107E2000C20080E18093C4008EE0C9D0259A86E02C
:107E300020E33CEF91E0309385002093840096BBD3
:107E4000B09BFECF1D9AA8958150A9F7CC24DD24C4
:107E500088248394B5E0AB2EA1E19A2EF3E0BF2EE7
:107E6000A2D0813461F49FD0082FAFD0023811F036
:107E7000013811F484E001C083E08DD089C08234E0
:107E800011F484E103C0853419F485E0A6D080C0E4
:107E9000853579F488D0E82EFF2485D0082F10E0AE
:107EA000102F00270E291F29000F111F8ED06801E7
:107EB0006FC0863521F484E090D080E0DECF843638
:107EC00009F040C070D06FD0082F6DD080E0C81688
:107ED00080E7D80618F4F601B7BEE895C0E0D1E017
:107EE00062D089930C17E1F7F0E0CF16F0E7DF06D8
:107EF00018F0F601B7BEE89568D007B600FCFDCFD4
:107F0000A601A0E0B1E02C9130E011968C91119780
:107F100090E0982F8827822B932B1296FA010C0160
:107F200087BEE89511244E5F5F4FF1E0A038BF0790
:107F300051F7F601A7BEE89507B600FCFDCF97BE46
:107F4000E89526C08437B1F42ED02DD0F82E2BD052
:107F50003CD0F601EF2C8F010F5F1F4F84911BD097
:107F6000EA94F801C1F70894C11CD11CFA94CF0C13
:107F7000D11C0EC0853739F428D08EE10CD085E9AC
:107F80000AD08FE07ACF813511F488E018D01DD067
:107F900080E101D065CF982F8091C00085FFFCCF94
:107FA0009093C60008958091C00087FFFCCF809118
:107FB000C00084FD01C0A8958091C6000895E0E648
:107FC000F0E098E1908380830895EDDF803219F02E
:107FD00088E0F5DFFFCF84E1DECF1F93182FE3DFCA
:107FE0001150E9F7F2DF1F91089580E0E8DFEE27F6
:047FF000FF270994CA
:027FFE00040479
:0400000300007E007B
:00000001FF
