:100000000C9462000C9413040C94EC030C948A007E
:100010000C948A000C948A000C948A000C948A0038
:100020000C948A000C948A000C948A000C948A0028
:100030000C948A000C948A000C948A000C948A0018
:100040000C94A2030C948A000C948A000C948A00ED
:100050000C948A000C948A000C948A000C948A00F8
:100060000C948A000C948A000000000024002700F1
:100070002A0000000000250028002B0000000000DE
:1000800023002600290004040404040404040202DA
:100090000202020203030303030301020408102007
:1000A0004080010204081020010204081020000012
:1000B0000008000201000003040700000000000027
:1000C00000002E0611241FBECFEFD8E0DEBFCDBF4B
:1000D00011E0A0E0B1E0E8EDFFE002C005900D9274
:1000E000A630B107D9F721E0A6E0B1E001C01D922A
:1000F000A237B207E1F710E0C2E6D0E004C02197D2
:10010000FE010E94AE07C136D107C9F70E943A042A
:100110000C94EA070C940000833081F028F48130BD
:1001200099F08230A9F008958730A9F08830C9F09D
:100130008430B1F4809180008F7D03C08091800075
:100140008F7780938000089584B58F7784BD08955C
:1001500084B58F7DFBCF8091B0008F778093B00006
:1001600008958091B0008F7DF9CFCF93DF93282F32
:1001700030E0F901E255FF4F8491F901E656FF4F57
:10018000D491F901EA57FF4FC491CC23A1F081111A
:100190000E948C00EC2FF0E0EE0FFF1FE458FF4FA1
:1001A000A591B491EC91ED2381E090E009F480E019
:1001B000DF91CF91089580E090E0FACF1F93CF9325
:1001C000DF93282F30E0F901E255FF4F8491F901C8
:1001D000E656FF4FD491F901EA57FF4FC491CC2363
:1001E000A9F0162F81110E948C00EC2FF0E0EE0F89
:1001F000FF1FEE58FF4FA591B4918FB7F894EC9183
:10020000111108C0D095DE23DC938FBFDF91CF9111
:100210001F910895DE2BF8CFCF93DF9390E0FC0180
:10022000E656FF4F24918A579F4FFC018491882303
:10023000D1F090E0880F991FFC01E859FF4FA5917C
:10024000B491FC01EE58FF4FC591D49161110EC0DD
:100250009FB7F8948C91E22FE0958E238C932881A0
:10026000E223E8839FBFDF91CF9108958FB7F89481
:10027000EC91E22BEC938FBFF6CF0F931F93CF93AC
:10028000DF93EC01862F1B861A86198218821E8A3C
:100290001F8A188E198EE0E4F0E0FF83EE836C87EE
:1002A0007D875F874E87398B288B1B8B0A8B61E09C
:1002B0000E940C0161E08E850E940C0161E088893A
:1002C0000E940C0161E08A890E940C011D8A1C8A2F
:1002D00084E090E099878887DF91CF911F910F91FB
:1002E00008953FB7F8948091070190910801A0917B
:1002F0000901B0910A0126B5A89B05C02F3F19F04E
:100300000196A11DB11D3FBFBA2FA92F982F882795
:10031000BC01CD01620F711D811D911D42E0660F70
:10032000771F881F991F4A95D1F7089508950F9355
:100330001F93CF93DF93EC018B01888599850297FA
:1003400049F46130710509F436C04CF560E00115DF
:10035000110591F188859985049749F401301105BB
:1003600009F451C09CF50115110509F43BC08885BD
:100370009985059709F0C5C00A30110508F0C1C07C
:10038000F801EB53FE4F0C94AE07170221022F0227
:10039000410259025B0261026B0279027F02623004
:1003A000710591F060E003301105A1F68C850E9483
:1003B000DE0060E005C061E08C850E94DE0061E047
:1003C0008E850E94DE00C6CF61E0F0CF02301105BD
:1003D00001F10330110559F661E08C850E94DE00C1
:1003E00060E01CC061E08C850E94DE0060E08E85CC
:1003F0000E94DE0061E088890E94DE0060E08A8958
:100400000E94DE00B4CF60E08C850E94DE0061E0D7
:10041000EECF60E08C850E94DE0061E08E850E9458
:10042000DE0060E088890E94DE0061E0E8CF60E0E5
:100430008C850E94DE0061E08E850E94DE0061E016
:1004400009C060E08C850E94DE0061E08E850E941C
:10045000DE0060E088890E94DE0060E00DC060E0A0
:100460008C850E94DE0061E08E850E94DE0060E0E7
:1004700088890E94DE0061E08A890E94DE0061E0D6
:1004800011C060E08C850E94DE0061E08E850E94D4
:10049000DE0060E088890E94DE0061E08A890E94B7
:1004A000DE0060E08C89DF91CF911F910F910C9459
:1004B000DE0061E0E7CF61E08C850E94DE0060E055
:1004C000E5CF61E08C850E94DE0060E08E850E94B1
:1004D000DE0061E0DFCF61E08C850E94DE0060E03D
:1004E0008E850E94DE0061E088890E94DE0060E067
:1004F000D5CF61E08C850E94DE0060E09DCF60E09A
:10050000F9CFDF91CF911F910F910895CF92DF9294
:10051000EF92FF920F931F93CF93DF93EC01613023
:10052000710509F045C0798368830E9471010E89C5
:100530001F89288D398D6B017C01C01AD10AE20A0E
:10054000F30A0A811B812C813D81C016D106E20687
:10055000F30658F36E8B7F8B888F998F8A859B85E6
:10056000288139812130310549F501969B878A8799
:100570002E813F818217930711F41B861A868A8584
:100580009B85288539856AE070E02530310511F0BA
:1005900064E070E00E947B07BC01CE01DF91CF9147
:1005A0001F910F91FF90EF90DF90CF900C949701E7
:1005B0006F3F7F4F79F419821882B7CF892B21F4CE
:1005C0008E819F819B878A878A859B8501979B87E0
:1005D0008A87D5CFDF91CF911F910F91FF90EF9038
:1005E000DF90CF900895CF92DF92EF92FF92CF935A
:1005F000DF93EC010E9471016B017C010E9471018B
:100600006C197D098E099F09643171058105910579
:1006100028F460E083E10E94DE00F0CF0E947101C7
:100620006B017C010E9471016C197D098E099F0983
:10063000683271058105910528F461E083E10E942B
:10064000DE00F0CF60E083E10E94DE00C130D10522
:10065000C1F0C330D10509F446C0209701F52197B8
:1006600080E00E94B500892BD1F30E9471016B01DB
:100670007C012197A1F080E00E94B500892BC9F789
:1006800017C0D0E0C0E0219781E00E94B500892B1F
:10069000D1F30E9471016B017C01219721F460E08C
:1006A00070E0CB010DC081E00E94B500892BA9F755
:1006B0000E9471016C197D098E099F090E945C06D8
:1006C00020E030E040E05FE30E94BD0624E037EE2A
:1006D0004CE05DE30E94BD06DF91CF91FF90EF906B
:1006E000DF90CF900895D0E0C0E0219783E00E9492
:1006F000B500892BD1F30E9471016B017C01219718
:1007000071F283E00E94B500892BC9F7D1CF8091A7
:100710002501811114C080912F01811104C081E055
:1007200080932F01089580916C01811104C081E0B4
:1007300080936C01089581E08093250108951092C3
:10074000250108951F920F920FB60F9211242F9337
:100750003F938F939F93AF93BF9380912601909186
:100760002701A0912801B09129013091060123E0D1
:10077000230F2D3758F50196A11DB11D20930601B9
:100780008093260190932701A0932801B09329011B
:100790008091070190910801A0910901B0910A018F
:1007A0000196A11DB11D8093070190930801A093AC
:1007B0000901B0930A01BF91AF919F918F913F9131
:1007C0002F910F900FBE0F901F90189526E8230FC2
:1007D0000296A11DB11DD2CF1F920F920FB60F929C
:1007E00011242F933F934F935F936F937F938F9336
:1007F0009F93AF93BF93EF93FF93E0910201F0912A
:1008000003010995FF91EF91BF91AF919F918F9156
:100810007F916F915F914F913F912F910F900FBEFC
:100820000F901F9018951F920F920FB60F921124E0
:100830002F933F934F935F936F937F938F939F93E8
:10084000AF93BF93EF93FF93E0910001F09101010B
:100850000995FF91EF91BF91AF919F918F917F91FA
:100860006F915F914F913F912F910F900FBE0F901D
:100870001F901895789484B5826084BD84B581609A
:1008800084BD85B5826085BD85B5816085BD80915B
:100890006E00816080936E001092810080918100D3
:1008A00082608093810080918100816080938100CB
:1008B000809180008160809380008091B10084608D
:1008C0008093B1008091B00081608093B0008091EE
:1008D0007A00846080937A0080917A0082608093AD
:1008E0007A0080917A00816080937A0080917A000A
:1008F000806880937A001092C10061E08CE00E94D1
:100900000C0160E082E10E940C0160E081E00E9445
:100910000C0160E083E00E940C0160E080E00E9436
:100920000C0161E083E10E940C0187E893E0909361
:10093000010180930001809169008C7F8160809328
:100940006900E89AD1E0412C87E8582E83E9682EA7
:1009500083E0782E9EE1892E912CA12CB12CC1E050
:1009600022E0222E312C82E10E94B500892B09F46D
:1009700070C18FB7F894C0902601D0902701E09005
:100980002801F09029018FBFC0926E01D0926F01B3
:10099000E0927001F092710180916D01811133C07C
:1009A00080916C0181112FC081E090E00E94F302E0
:1009B00020E030E040E251E40E94570687FF23C068
:1009C00090E080E00E94F30220E030E040E251E459
:1009D0000E94570687FFD9C083E090E00E94F3028F
:1009E00020E030E040E251E40E94570687FF07C054
:1009F00083E090E090936B0180936A0104C0309291
:100A00006B0120926A0180916901811141C020919E
:100A1000550130915601032E000C440B550BC301B8
:100A2000B2010E948F07CA01B901A50194010E9479
:100A30008F072093510130935201409353015093FB
:100A4000540120913B0130913C01032E000C440BDA
:100A5000550BC301B2010E948F07CA01B901A5015C
:100A600094010E948F0720933701309338014093FF
:100A7000390150933A0180916A0190916B01813064
:100A8000910509F4AAC00CF083C0892B09F498C021
:100A90008091310190913201A0913301B0913401E4
:100AA000A7019601281B390B4A0B5B0BDA01C90120
:100AB000883E9340A105B10580F0609130016D271B
:100AC000609330018CE00E94DE00C0923101D09230
:100AD0003201E0923301F092340180912F0188239A
:100AE00071F080912E0181110AC0C0922A01D0922A
:100AF0002B01E0922C01F0922D01C0932E018091E8
:100B00006C018823D1F180912A0190912B01A09151
:100B10002C01B0912D01C81AD90AEA0AFB0A44EF48
:100B2000C41641E0D406E104F10408F48BC0C0937C
:100B300069018091250181117CC0209111013091C2
:100B40001201032E000C440B550BC301B2010E948D
:100B50008F07CA01B901A50194010E948F07209354
:100B60000D0130930E0140930F015093100161E08D
:100B700070E08BE091E00E94860280E090E0892B9B
:100B800009F4F1CE0E940000EECE81E090E032CF79
:100B900082309105C1F1039709F07ACF00910401E9
:100BA000109105010115110509F16FEF7FEF85E344
:100BB00091E00E9486026FEF7FEF8FE491E02EC0FC
:100BC00061E070E085E391E00E94860261E070E000
:100BD0008FE491E00E9486025BCF009104011091A6
:100BE000050161E070E00115110539F710926B0104
:100BF00010926A0120E830E030930501209304014F
:100C000010926D0145CF009104011091050161E042
:100C100070E085E391E00115110541F30E94860221
:100C2000015011091093050100930401C0936D0157
:100C30002FCF10922F0110926C0110922E01109262
:100C400069019BCF10922F0110922E0110926C011E
:100C500094CF60E08CE00E94DE008FCF0F931F9353
:100C60000BE010E029E030E04AE050E068E070E09E
:100C70008FE491E00E943D0101E110E02FE030E0BF
:100C800040E150E06EE070E085E391E00E943D01BC
:100C900007E010E025E030E046E050E064E070E07E
:100CA0008BE091E00E943D011F910F9108950E94F9
:100CB000990608F481E00895E89409C097FB3EF492
:100CC00090958095709561957F4F8F4F9F4F992399
:100CD000A9F0F92F96E9BB279395F6958795779517
:100CE0006795B795F111F8CFFAF4BB0F11F460FFD7
:100CF0001BC06F5F7F4F8F4F9F4F16C0882311F02F
:100D000096E911C0772321F09EE8872F762F05C042
:100D1000662371F096E8862F70E060E02AF09A95DD
:100D2000660F771F881FDAF7880F9695879597F9D2
:100D30000895990F0008550FAA0BE0E8FEEF16166C
:100D40001706E807F907C0F012161306E407F507BF
:100D500098F0621B730B840B950B39F40A2661F033
:100D6000232B242B252B21F408950A2609F4A140D6
:100D7000A6958FEF811D811D08950E94D0060C94C9
:100D800041070E94330738F00E943A0720F095236C
:100D900011F00C942A070C94300711240C94750759
:100DA0000E94520770F3959FC1F3950F50E0551FB5
:100DB000629FF001729FBB27F00DB11D639FAA27B0
:100DC000F00DB11DAA1F649F6627B00DA11D661FFF
:100DD000829F2227B00DA11D621F739FB00DA11D20
:100DE000621F839FA00D611D221F749F3327A00DDA
:100DF000611D231F849F600D211D822F762F6A2F76
:100E000011249F5750409AF0F1F088234AF0EE0FDA
:100E1000FF1FBB1F661F771F881F91505040A9F707
:100E20009E3F510580F00C942A070C9475075F3F94
:100E3000E4F3983ED4F3869577956795B795F79543
:100E4000E7959F5FC1F7FE2B880F911D96958795BB
:100E500097F9089597F99F6780E870E060E008953A
:100E60009FEF80EC089500240A94161617061806C2
:100E70000906089500240A9412161306140605069E
:100E80000895092E0394000C11F4882352F0BB0F2F
:100E900040F4BF2B11F460FF04C06F5F7F4F8F4F92
:100EA0009F4F089557FD9058440F551F59F05F3FCD
:100EB00071F04795880F97FB991F61F09F3F79F07C
:100EC00087950895121613061406551FF2CF4695FE
:100ED000F1DF08C0161617061806991FF1CF869580
:100EE0007105610508940895E894BB276627772764
:100EF000CB0197F9089597FB072E16F4009407D0BD
:100F000077FD09D00E94B40707FC05D03EF4909508
:100F100081959F4F0895709561957F4F0895052E97
:100F200097FB1EF400940E94A60757FD07D00E946D
:100F3000C80707FC03D04EF40C94A60750954095C3
:100F4000309521953F4F4F4F5F4F08959095809575
:100F5000709561957F4F8F4F9F4F0895EE0FFF1F44
:100F60000590F491E02D0994AA1BBB1B51E107C029
:100F7000AA1FBB1FA617B70710F0A61BB70B881F29
:100F8000991F5A95A9F780959095BC01CD010895B8
:100F9000A1E21A2EAA1BBB1BFD010DC0AA1FBB1F7D
:100FA000EE1FFF1FA217B307E407F50720F0A21BEF
:100FB000B30BE40BF50B661F771F881F991F1A945C
:100FC00069F760957095809590959B01AC01BD0186
:080FD000CF010895F894FFCF52
:060FD80096019601800065
:00000001FF
